:100000009DC00000C4C00000C2C00000C0C000000D
:10001000BEC00000BCC00000BAC00000B8C00000F4
:10002000B6C00000B4C00000B6C40000B0C00000FC
:10003000AEC00000ACC00000AAC00000A8C0000014
:10004000A6C00000A4C00000A2C00000A0C0000024
:100050009EC000009CC000009AC0000098C0000034
:1000600096C0000094C0000092C0000090C0000044
:100070008EC000008CC000008AC0000088C0000054
:1000800086C0000084C0000082C0000080C0000064
:100090007EC000007CC00000120100020000004091
:1000A000EB031A20001001020301090220000101E4
:1000B0000080320904000002080650000705810292
:1000C000400000070502024000000C0341005400FC
:1000D0004D0045004C002203410056005200200014
:1000E0005500530042002000530054004F005200BE
:1000F00041004700450020001C0330003000300064
:10010000300030003000300030003000300030006F
:10011000300030000403090441544D454C20202098
:1001200041543930555342313238204D205320202C
:10013000302E3030008000021F00000011241FBE4E
:10014000CFEFD0E2DEBFCDBF80E090E020E80FB679
:10015000F89420936100809361000FBE81E011E06C
:10016000A0E0B1E0E0E3F4E200E00BBF02C00790E2
:100170000D92A030B107D9F711E0A0E0B1E001C0C5
:100180001D92A833B107E1F713D00C94161238CFA3
:100190008FB7F89497EF94BF98E10FB6F8949093C7
:1001A0006000109260000FBE87FF01C07894089530
:1001B000EFDF80E090E020E80FB6F8942093610034
:1001C000809361000FBE0E94A20C80E090E0089531
:1001D00081E0089580E00895EF92FF920F931F93BE
:1001E0007A018B01882319F021E030E005C0A901D4
:1001F000C801B70149D59C01C9011F910F91FF901A
:10020000EF900895EF92FF920F931F937A018B0165
:10021000882319F021E030E005C0A901C801B70129
:10022000A0D49C01C9011F910F91FF90EF900895F8
:10023000882311F081E0089591C4882319F021E00A
:1002400030E003C0CB0114D59C01C9010895882377
:1002500019F021E030E002C0F6D49C01C9010895F4
:100260007894E8EDF0E080818F76808380818069EA
:10027000808380818F7B8083789408958EE089BD10
:1002800009B400FEFDCF8091D8008F7D8093D80007
:1002900079D08091E0008E7F8093E0008091E20031
:1002A00081608093E2008091E20088608093E200A8
:1002B00008958091D90080FF13C0809100018823A8
:1002C00079F481E080930001109202018091030192
:1002D0009091040182609093040180930301CEDF2A
:1002E0008091D90080FD13C02FC0109200011092A0
:1002F000190180910301909104018460909304019D
:10030000809303018091D80080628093D80080910F
:1003100003019091040190FF10C08091030190911E
:1003200004019E7F909304018093030181E08093F8
:10033000EA001092EA00109219011092E9008091EF
:10034000E80083FF06C001C1809100018130F9F609
:10035000CCCF08959091EB0091609093EB00809347
:10036000EC008091ED008270862B8093ED008091EF
:10037000ED0082608093ED008091EE00881F882759
:10038000881F08958091D8008F7B8093D80080913A
:10039000D90081FF21C01092E9008091EB0080FD1F
:1003A0001BC01092E9008091EB0081608093EB000C
:1003B00082E08093EC008091ED00827080638093F6
:1003C000ED008091ED0082608093ED008091EE0061
:1003D000881F8827881F089580E0089580E0089589
:1003E000892B19F581E08093E9008091EB00806111
:1003F0008093EB0092E09093EA001092EA008091E3
:10040000EB0088608093EB009093E9008091EB0013
:1004100080618093EB0084E08093EA001092EA0010
:100420008091EB0088608093EB000895833031F574
:10043000613069F0613028F0623079F06330F1F4B6
:1004400012C084E080931A0184E191E011C08CE035
:1004500080931A018AEC90E00BC082E280931A012B
:1004600086ED90E005C08CE180931A0188EF90E062
:1004700090931C0180931B0181E0089580E0089512
:100480000F931F9309EE10E081E0F801808364E38D
:1004900081E860DF82E0F801808364E380E85ADF6E
:1004A0001F910F910895DF93CF9300D0CDB7DEB7A2
:1004B0009091F1002091F1008132E9F46F3F09F051
:1004C0003EC09923E1F52223D1F58091F100898383
:1004D0008091F1008A8389819A81892B81F58091AD
:1004E000E800877F8093E8008091E8008E7F80930A
:1004F000E80081E025C0813A11F56E3F01F59923AE
:10050000F1F42223E1F48091F10089838091F100DC
:100510008A8389819A81892B91F48091E800877F71
:100520008093E80055DE81508093F1008091E800CF
:100530008E7F8093E80081E08093110101C080E00C
:100540000F900F90CF91DF9108950F931F93DF933A
:10055000CF9300D0CDB7DEB78091E8008B7F80933A
:10056000E8001091F1000091F1000630F9F0073039
:1005700068F4013009F413C1013008F480C103307C
:1005800009F441C1053009F0EDC1D2C0093009F4C8
:10059000EFC00A3020F4083009F0E4C1A4C00A30EA
:1005A00009F49BC10B3009F0DDC1BAC1103809F064
:1005B000D9C16091F1008091F100813019F0823051
:1005C00089F406C082E180931A0188E990E005C0B1
:1005D00080E280931A018AEA90E090931C01809354
:1005E0001B0104C023DF882309F4BCC18091F10002
:1005F0008091F1008091F10089838091F1008A83DC
:100600008091E800877F8093E80029813A8180917A
:100610001A0190E08217930730F48F739070892B42
:1006200021F461E003C020931A0160E08091E800AA
:100630008F7E8093E80020911B0130911C01409136
:100640001A0122C08091E80084FF03C0F90190E004
:100650000FC08091E80080FFF5CFF8CF542F5150A4
:10066000903449F09F5F84918093F1003196452F3B
:100670009F01442399F78091E80084FD12C0809186
:10068000E8008E7F8093E800442339F420931B0117
:1006900030931C0110921A010AC08091E80084FF77
:1006A000D8CF20931B0130931C0140931A01613075
:1006B00069F48091E80084FD09C08091E80080FF22
:1006C000FCCF8091E8008E7F8093E8008091E80065
:1006D00084FFFCCF8091E8008F7E8093E8008091BA
:1006E000E8008B7F22C0103809F03CC18091E800FF
:1006F000877F8093E800809119018093F1008091B9
:10070000E8008E7F8093E8008091E8008F778093E7
:10071000E8008091E80082FFFCCF8091E8008B7FA9
:100720008093E8008091E8008F778093E8002CC1E7
:10073000112309F017C19091F1008091E3009F7798
:100740008078982B9093E3008091E800877F8093D6
:10075000E8008091E8008E7F8093E8008091E800B7
:1007600080FFFCCF8091E30080688093E3000CC1A0
:10077000112309F0F7C09091F100923008F0F2C017
:100780008091E800877F8093E80090931901809121
:10079000E8008E7F8093E800892F72DEF5C0112378
:1007A000C1F1123009F0DEC08091F1009091F100AA
:1007B000882309F0D7C0E091F100EF77E093E900DA
:1007C0008091EB0080FF43C0EE23B1F08091EB00FD
:1007D00080618093EB0081E090E00E2E02C0880FD4
:1007E000991F0A94E2F78093EA001092EA00809140
:1007F000EB0088608093EB001092E900F0E0EE5E81
:10080000FE4F108233C0112321F0123009F0AAC02C
:1008100003C08091F100A6C08091F1009091F10099
:10082000882309F09FC0E091F100EF7751F48091A7
:10083000EB0080628093EB008091E800877F8093DB
:10084000E800E093E9008091EB0080FD03C0109286
:10085000E90088C08091EB0080628093EB001092E9
:10086000E900F0E0EE5EFE4F81E080838091E800D9
:10087000877F8093E8008091E8008E7F56CF80913B
:10088000F1008091F100E091F100113829F0123867
:1008900059F0103809F066C08091E800877F809396
:1008A000E8001092F1000DC08091E800877F8093EE
:1008B000E800F0E0EF77F070EE5EFE4F808180930D
:1008C000F1001092F1008091E8008E7F8093E800A3
:1008D0008091E80082FFFCCF20CF113809F042C0A0
:1008E0008091F1008091F1009091F10099839091B5
:1008F000F1009A838823B1F58091E800877F809387
:10090000E80089819A816ADD8093F1008091E80096
:100910008E7F8093E8008091E80082FFFCCFFDCEBF
:10092000113001F56091F1008091F1009091F1009A
:1009300099839091F1009A838823A1F48091E80033
:10094000877F8093E80089819A814ADD1092E900CF
:100950008091E8008E7F8093E8008091E80080FF1E
:10096000FCCF12C0602F812F9EDD882369F4809117
:10097000EB0080628093EB008091E800877F80939A
:10098000E80081E0809312010F900F90CF91DF91EA
:100990001F910F9108951F920F920FB60F920BB6F1
:1009A0000F9211242F933F934F935F936F937F93F5
:1009B0008F939F93AF93BF93EF93FF938091E10049
:1009C00082FF09C08091E20082FF05C08BEF809317
:1009D000E1000E94FC108091E10080FF40C0809106
:1009E000E20080FF3CC0809102018130D9F4809107
:1009F00019018823B9F08091E2008E7F8093E20094
:100A00008FEE8093E1008091E20080618093E200AC
:100A100089B58D7F89BD19BC8091D8008062809393
:100A2000D8001DC08FEE8093E1008091030190916A
:100A30000401806290930401809303018EEF809300
:100A4000E1008091E20080618093E2008091D80013
:100A500080628093D80089B58D7F89BD19BC809153
:100A6000E10084FF27C08091E20084FF23C009B425
:100A700000FC05C08EE089BD09B400FEFDCF809169
:100A8000D8008F7D8093D8008FEE8093E100809115
:100A9000E2008F7E8093E200809103019091040137
:100AA000806490930401809303018091E20081604F
:100AB0008093E2008091E10085FF1AC08091E200FE
:100AC00085FF16C08091E2008F7E8093E2008FED5B
:100AD0008093E1008091E2008F7D8093E20080911D
:100AE00003019091040180689093040180930301B5
:100AF0008091E10083FF11C08091E20083FF0DC06F
:100B000087EF8093E1003EDC809103019091040126
:100B100091609093040180930301FF91EF91BF9145
:100B2000AF919F918F917F916F915F914F913F9185
:100B30002F910F900BBE0F900FBE0F901F90189526
:100B4000B8CB0895E7EDF0E08081816080838081FB
:100B50008F7B808380818068808382CB8091050138
:100B60000895BF92CF92DF92EF92FF920F931F935F
:100B7000DF93CF9300D000D0CDB7DEB769837A83FF
:100B80008B839C836A01BB24B39440C0E980FA80C4
:100B90000B811C81C801B70166D1898180FD25C008
:100BA00081E0C816D10479F481E090E0F7D1B82E45
:100BB000F1D10894E11CF11C011D111DE982FA829A
:100BC0000B831C832AC082E090E0E8D1B82EE2D1EA
:100BD000AEEFBFEFCA0EDB1E82E090E0A0E0B0E017
:100BE000E80EF91E0A1F1B1F0DC081E090E0D6D150
:100BF000B82ED0D10894C108D1080894E11CF11C8A
:100C0000011D111DE982FA820B831C83C114D104DA
:100C100021F091E0B91609F4B9CFBCD120E030E061
:100C2000BB2011F421E030E0C9010F900F900F902C
:100C30000F90CF91DF911F910F91FF90EF90DF9078
:100C4000CF90BF900895909105018091060198176B
:100C500029F09093060123E030E008C0B2D0813043
:100C600019F022E030E002C020E030E0C901089530
:100C7000FC018FEF9FE7A0E0B0E080839183A28327
:100C8000B383E1CF75C00895CF92DF92EF92FF92C8
:100C90000F931F93DF93CF9300D000D0CDB7DEB773
:100CA0008B019C01809105018823D1F409831A836B
:100CB0002B833C836A0147C0E980FA800B811C8149
:100CC000C801B70184D3898180FD2BC081E0C8169B
:100CD000D104A1F481E090E05CD4882321F448D0D1
:100CE00021E030E037C022D40894E11CF11C011D42
:100CF000111DE982FA820B831C8329C082E090E0F7
:100D000048D4882361F312D4AEEFBFEFCA0EDB1EC6
:100D100082E090E0A0E0B0E0E80EF91E0A1F1B1F81
:100D20000EC081E090E035D48823C9F2FFD3089447
:100D3000C108D1080894E11CF11C011D111DE982B4
:100D4000FA820B831C83C114D10409F0B5CFEED312
:100D500020E030E0C9010F900F900F900F90CF91DD
:100D6000DF911F910F91FF90EF90DF90CF9008954A
:100D7000239884B1876084B985B18F6085B98DB1BE
:100D800083608DB98EB183608EB98CB580618CBD66
:100D90008CB5837F8CBD8CB58C608CBD84B1866036
:100DA00084B98CB58C7F8CBD8CB58CBD8DB58160C4
:100DB0008DBD8CB580648CBD10920B0110920C011E
:100DC000089510920C0190E037ED24C08EB183603D
:100DD0008EB9992319F0913021F402C0709801C0A6
:100DE00071983EBD0DB407FEFDCF1EBC0DB407FECD
:100DF000FDCF8EB5292F2F5F8C738C3339F09093F4
:100E00000C018EB183608EB980E008958EB183604D
:100E10008EB9922F9230D0F290930C0181E0089518
:100E20008EB183608EB980910C01882319F08130D6
:100E300021F402C0709801C0719887ED8EBD0DB489
:100E400007FEFDCF1EBC0DB407FEFDCF04C01EBCC7
:100E50000DB407FEFDCF0EB407FEF9CF8EB183604F
:100E60008EB98EB508951F93DF93CF9300D000D035
:100E7000CDB7DEB7AC01162F69837A838B839C8351
:100E8000CB01DA019C01AD012170307040705070CF
:100E900079E0220F331F441F551F7A95D1F78C7FBD
:100EA000BA2FA92F982F8827282B392B4A2B5B2B59
:100EB00020930701309308014093090150930A01E0
:100EC0001695117010930C0120910B01822F90E068
:100ED000012E02C0959587950A94E2F780FF0DC018
:100EE00081E090E0012E02C0880F991F0A94E2F77A
:100EF0008095822380930B0193DF8EB183608EB93E
:100F0000112319F0113021F402C0709801C07198BA
:100F100082ED8EBD0DB407FEFDCF209108018091BA
:100F20000901880F922F991F9927991F892B8EBD30
:100F30000DB407FEFDCF822F90E08C7F880F991FA4
:100F40002370282B2EBD0DB407FEFDCF8091070125
:100F50008EBD0DB407FEFDCF8FEF8EBD0DB407FE25
:100F6000FDCF8FEF8EBD0DB407FEFDCF8FEF8EBD91
:100F70000DB407FEFDCF8FEF8EBD0DB407FEFDCF84
:100F80008EB581E00F900F900F900F90CF91DF9171
:100F90001F9108958EB183608EB90895EF92FF92EC
:100FA0000F931F932091070130910801409109018F
:100FB00050910A0120503E4F4F4F5F4F01977C01E7
:100FC00000E010E0E9E0EE0CFF1C001F111FEA95A5
:100FD000D1F7E20EF31E041F151F2050324040408F
:100FE000504098E0F8941EBC0DB407FEFDCF8EB5BE
:100FF0008093F1001EBC0DB407FEFDCF8EB580932B
:10100000F1001EBC0DB407FEFDCF8EB58093F1003C
:101010001EBC0DB407FEFDCF8EB58093F1001EBC43
:101020000DB407FEFDCF8EB58093F1001EBC0DB44C
:1010300007FEFDCF8EB58093F1001EBC0DB407FEF8
:10104000FDCF8EB58093F1001EBC0DB407FEFDCF21
:101050008EB58093F1001EBC0DB407FEFDCF8EB59A
:101060008093F1001EBC0DB407FEFDCF8EB58093BA
:10107000F1001EBC0DB407FEFDCF8EB58093F100CC
:101080001EBC0DB407FEFDCF8EB58093F1001EBCD3
:101090000DB407FEFDCF8EB58093F1001EBC0DB4DC
:1010A00007FEFDCF8EB58093F1001EBC0DB407FE88
:1010B000FDCF8EB58093F1001EBC0DB407FEFDCFB1
:1010C0008EB58093F1001EBC0DB407FEFDCF8EB52A
:1010D0008093F1001EBC0DB407FEFDCF8EB580934A
:1010E000F1001EBC0DB407FEFDCF8EB58093F1005C
:1010F0001EBC0DB407FEFDCF8EB58093F1001EBC63
:101100000DB407FEFDCF8EB58093F1001EBC0DB46B
:1011100007FEFDCF8EB58093F1001EBC0DB407FE17
:10112000FDCF8EB58093F1001EBC0DB407FEFDCF40
:101130008EB58093F1001EBC0DB407FEFDCF8EB5B9
:101140008093F1001EBC0DB407FEFDCF8EB58093D9
:10115000F1001EBC0DB407FEFDCF8EB58093F100EB
:101160001EBC0DB407FEFDCF8EB58093F1001EBCF2
:101170000DB407FEFDCF8EB58093F1001EBC0DB4FB
:1011800007FEFDCF8EB58093F1001EBC0DB407FEA7
:10119000FDCF8EB58093F1001EBC0DB407FEFDCFD0
:1011A0008EB58093F1001EBC0DB407FEFDCF8EB549
:1011B0008093F1001EBC0DB407FEFDCF8EB5809369
:1011C000F1001EBC0DB407FEFDCF8EB58093F1007B
:1011D0001EBC0DB407FEFDCF8EB58093F1001EBC82
:1011E0000DB407FEFDCF8EB58093F1001EBC0DB48B
:1011F00007FEFDCF8EB58093F1001EBC0DB407FE37
:10120000FDCF8EB58093F1001EBC0DB407FEFDCF5F
:101210008EB58093F1001EBC0DB407FEFDCF8EB5D8
:101220008093F1001EBC0DB407FEFDCF8EB58093F8
:10123000F1001EBC0DB407FEFDCF8EB58093F1000A
:101240001EBC0DB407FEFDCF8EB58093F1001EBC11
:101250000DB407FEFDCF8EB58093F1001EBC0DB41A
:1012600007FEFDCF8EB58093F1001EBC0DB407FEC6
:10127000FDCF8EB58093F1001EBC0DB407FEFDCFEF
:101280008EB58093F1001EBC0DB407FEFDCF8EB568
:101290008093F1001EBC0DB407FEFDCF8EB5809388
:1012A000F1001EBC0DB407FEFDCF8EB58093F1009A
:1012B0001EBC0DB407FEFDCF8EB58093F1001EBCA1
:1012C0000DB407FEFDCF8EB58093F1001EBC0DB4AA
:1012D00007FEFDCF8EB58093F1001EBC0DB407FE56
:1012E000FDCF8EB58093F1001EBC0DB407FEFDCF7F
:1012F0008EB58093F1001EBC0DB407FEFDCF8EB5F8
:101300008093F1001EBC0DB407FEFDCF8EB5809317
:10131000F1001EBC0DB407FEFDCF8EB58093F10029
:101320001EBC0DB407FEFDCF8EB58093F1001EBC30
:101330000DB407FEFDCF8EB58093F1001EBC0DB439
:1013400007FEFDCF8EB58093F1001EBC0DB407FEE5
:10135000FDCF8EB58093F1001EBC0DB407FEFDCF0E
:101360008EB58093F1008091E8008F778093E8003C
:10137000789404C08091EB0080FF1BC08091E8004E
:1013800085FFF8CF915009F02DCE20503E4F4F4FA2
:101390005F4F2E153F054007510709F022CE2093DD
:1013A0000701309308014093090150930A0181E03D
:1013B00009C020930701309308014093090150931D
:1013C0000A0180E01F910F91FF90EF9008951F9305
:1013D000DF93CF9300D000D0CDB7DEB7AC01162F8E
:1013E00069837A838B839C83CB01DA019C01AD01F5
:1013F000217030704070507079E0220F331F441F0D
:10140000551F7A95D1F78C7FBA2FA92F982F88274F
:10141000282B392B4A2B5B2B209307013093080193
:101420004093090150930A011695117010930C0115
:1014300020910B01822F90E0012E02C09595879597
:101440000A94E2F780FF0DC081E090E0012E02C017
:10145000880F991F0A94E2F78095822380930B01ED
:10146000DFDC8EB183608EB9112319F0113021F4C5
:1014700002C0709801C0719883E58EBD0DB407FE5F
:10148000FDCF2091080180910901880F922F991FAB
:101490009927991F892B8EBD0DB407FEFDCF220F12
:1014A0002EBD0DB407FEFDCF1EBC0DB407FEFDCF53
:1014B0008EB58EB183608EB9B3DC8EB183608EB988
:1014C000112319F0113021F402C0709801C07198F5
:1014D00082E88EBD0DB407FEFDCF209108018091FA
:1014E0000901880F922F991F9927991F892B8EBD6B
:1014F0000DB407FEFDCF822F90E08C7F880F991FDF
:101500002370282B2EBD0DB407FEFDCF809107015F
:101510008EBD0DB407FEFDCF8EB581E00F900F900C
:101520000F900F90CF91DF911F91089517C01EBCAF
:101530000DB407FEFDCF8091070190910801A091A5
:101540000901B0910A010196A11DB11D8093070107
:1015500090930801A0930901B0930A0180910701BB
:10156000882329F78091080180FDE1CF8EB58EB1E7
:1015700083608EB981E090E000900C0102C0880F7A
:10158000991F0A94E2F720910B01282B20930B015D
:1015900008959C0181E090E000900C0102C0880F4A
:1015A000991F0A94E2F7582F40910B0198E004C06C
:1015B0008091EB0080FFBDC18091E80085FFF8CFEE
:1015C000F8948091F1008EBD0DB407FEFDCF80919F
:1015D000F1008EBD0DB407FEFDCF8091F1008EBDF0
:1015E0000DB407FEFDCF8091F1008EBD0DB407FE56
:1015F000FDCF8091F1008EBD0DB407FEFDCF80912F
:10160000F1008EBD0DB407FEFDCF8091F1008EBDBF
:101610000DB407FEFDCF8091F1008EBD0DB407FE25
:10162000FDCF8091F1008EBD0DB407FEFDCF8091FE
:10163000F1008EBD0DB407FEFDCF8091F1008EBD8F
:101640000DB407FEFDCF8091F1008EBD0DB407FEF5
:10165000FDCF8091F1008EBD0DB407FEFDCF8091CE
:10166000F1008EBD0DB407FEFDCF8091F1008EBD5F
:101670000DB407FEFDCF8091F1008EBD0DB407FEC5
:10168000FDCF8091F1008EBD0DB407FEFDCF80919E
:10169000F1008EBD0DB407FEFDCF8091F1008EBD2F
:1016A0000DB407FEFDCF8091F1008EBD0DB407FE95
:1016B000FDCF8091F1008EBD0DB407FEFDCF80916E
:1016C000F1008EBD0DB407FEFDCF8091F1008EBDFF
:1016D0000DB407FEFDCF8091F1008EBD0DB407FE65
:1016E000FDCF8091F1008EBD0DB407FEFDCF80913E
:1016F000F1008EBD0DB407FEFDCF8091F1008EBDCF
:101700000DB407FEFDCF8091F1008EBD0DB407FE34
:10171000FDCF8091F1008EBD0DB407FEFDCF80910D
:10172000F1008EBD0DB407FEFDCF8091F1008EBD9E
:101730000DB407FEFDCF8091F1008EBD0DB407FE04
:10174000FDCF8091F1008EBD0DB407FEFDCF8091DD
:10175000F1008EBD0DB407FEFDCF8091F1008EBD6E
:101760000DB407FEFDCF8091F1008EBD0DB407FED4
:10177000FDCF8091F1008EBD0DB407FEFDCF8091AD
:10178000F1008EBD0DB407FEFDCF8091F1008EBD3E
:101790000DB407FEFDCF8091F1008EBD0DB407FEA4
:1017A000FDCF8091F1008EBD0DB407FEFDCF80917D
:1017B000F1008EBD0DB407FEFDCF8091F1008EBD0E
:1017C0000DB407FEFDCF8091F1008EBD0DB407FE74
:1017D000FDCF8091F1008EBD0DB407FEFDCF80914D
:1017E000F1008EBD0DB407FEFDCF8091F1008EBDDE
:1017F0000DB407FEFDCF8091F1008EBD0DB407FE44
:10180000FDCF8091F1008EBD0DB407FEFDCF80911C
:10181000F1008EBD0DB407FEFDCF8091F1008EBDAD
:101820000DB407FEFDCF8091F1008EBD0DB407FE13
:10183000FDCF8091F1008EBD0DB407FEFDCF8091EC
:10184000F1008EBD0DB407FEFDCF8091F1008EBD7D
:101850000DB407FEFDCF8091F1008EBD0DB407FEE3
:10186000FDCF8091F1008EBD0DB407FEFDCF8091BC
:10187000F1008EBD0DB407FEFDCF8091F1008EBD4D
:101880000DB407FEFDCF8091F1008EBD0DB407FEB3
:10189000FDCF8091F1008EBD0DB407FEFDCF80918C
:1018A000F1008EBD0DB407FEFDCF8091F1008EBD1D
:1018B0000DB407FEFDCF8091F1008EBD0DB407FE83
:1018C000FDCF8EB58091E8008B7F8093E8008091FA
:1018D000E8008F778093E8007894915009F06CCEFF
:1018E0008091070190910801A0910901B0910A012E
:1018F00080509E4FAF4FBF4F8093070190930801D8
:10190000A0930901B0930A01215030408091080151
:1019100090E083709070892B21F48EB183608EB932
:10192000452B2115310509F041CE40930B0181E093
:10193000089540930B0180E0089502D95FD5FDCF53
:1019400001D96AC5FDDFF9CFDF93CF93CDB7DEB7FD
:1019500062970FB6F894DEBF0FBECDBF4091250150
:10196000433108F042E180E789831A828091320195
:101970008B831C821D821E821F828AE088871986C3
:101980001A861B861C86809133018D8780913401D5
:101990008E871F86188A198A1A8A9E012F5F3F4FE9
:1019A000F90103C081918093F1008E2F821B84176F
:1019B000C8F38091E8008F778093E80080911D0143
:1019C00090911E01A0911F01B0912001841B9109EB
:1019D000A109B10980931D0190931E01A0931F01DD
:1019E000B093200110923101109232011092330114
:1019F0001092340181E062960FB6F894DEBF0FBEFC
:101A0000CDBFCF91DF9108958091220190E0837046
:101A10009070892B21F480912301882369F081E063
:101A20008093310185E08093320184E28093330119
:101A30001092340180E0089590912501913608F0CC
:101A400090E620E0E4E3F1E015C0283019F4E8E185
:101A5000F1E009C0203119F4E0E2F1E004C02032E5
:101A600011F4E0E3F1E084918093F1002F5F2432E0
:101A700019F03196291748F38091E8008F77809309
:101A8000E80080911D0190911E01A0911F01B0916D
:101A90002001821B9109A109B10980931D01909336
:101AA0001E01A0931F01B0932001109231011092EA
:101AB0003201109233011092340181E008951F9396
:101AC000182F882311F01092F1006093F10010920A
:101AD000F100809135010E941801882321F080E8EF
:101AE0008093F10002C01092F100112331F01092A6
:101AF000F1001092F1001092F1001092F1001F918C
:101B000008950F931F93182F882319F0009129012E
:101B100002C0009125018091230190E08F739070A5
:101B20008C31910541F08F33910509F456C001972E
:101B300009F0E2C020C06FE0812FC1DF8CE180930B
:101B4000F1008AE08093F1001092F10085E080932B
:101B5000F1001092F1001092F1001092F100109239
:101B6000F1001092F1001092F1001092F10081E06A
:101B70008093F10021C06FE0812FA1DF81E080938D
:101B8000F1008AE08093F10090E89093F10083E007
:101B90008093F1001092F1001092F1001092F10088
:101BA0001092F1000D3040F09093F1001092F1008E
:101BB0001092F1001092F1008091E8008F778093ED
:101BC000E80080911D0190911E01A0911F01B0912C
:101BD00020014097A109B1092AC06BE1812F6FDF75
:101BE000112399F0083061F58091E8008F77809398
:101BF000E80080911D0190911E01A0911F01B091FC
:101C000020010897A109B10912C00430C9F48091DC
:101C1000E8008F778093E80080911D0190911E016C
:101C2000A0911F01B09120010497A109B1098093EF
:101C30001D0190931E01A0931F01B093200166C067
:101C400071E07093F1006AE06093F10090E8909386
:101C5000F10083E08093F1001092F1001092F10006
:101C60001092F1001092F10020911D0130911E019F
:101C700040911F01509120010D3060F19093F100CF
:101C80001092F1001092F1001092F1008CE180931B
:101C9000F1006093F1001092F10085E08093F10073
:101CA0001092F1001092F1001092F1001092F100E8
:101CB0001092F1001092F1001092F1007093F10077
:101CC0008091E8008F778093E8002C5130404040AD
:101CD000504009C08091E8008F778093E800201B76
:101CE00031094109510920931D0130931E01409390
:101CF0001F01509320010AC081E08093310185E0EB
:101D00008093320184E28093330106C01092310146
:101D100010923201109233011092340181E01F9130
:101D20000F910895DF93CF9300D000D000D0CDB7AE
:101D3000DEB7FE01339680912301838380912401D5
:101D40008283809125018183809126018B838091FC
:101D500028018A8380912901898380911D019091B6
:101D60001E01A0911F01B09120010097A105B105AE
:101D7000C1F489819A81892B39F410923101109232
:101D800032011092330109C081E08093310185E076
:101D90008093320184E2809333011092340181E018
:101DA0007FC0809135010E941801813039F4809301
:101DB000310187E08093320187E2EDCF20911D0150
:101DC00030911E0140911F015091200179E05695FC
:101DD0004795379527957A95D1F78B819C81AD8171
:101DE000BE81AC01BD01809135010E94EC008230C2
:101DF0009105C9F183309105F1F1892B09F045C0B6
:101E000029813A8140E050E080911D0190911E01AE
:101E1000A0911F01B091200169E0B695A795979513
:101E200087956A95D1F7281739074A075B0739F470
:101E300010923101109232011092330109C081E0F9
:101E40008093310185E08093320184E280933301F5
:101E50001092340110921D0110921E0110921F0168
:101E6000109220019CCF81E08093310182E0809329
:101E700032018AE307C081E08093310186E08093DC
:101E8000320188E28093330108C081E08093310100
:101E900084E080933201109233011092340180E08B
:101EA00026960FB6F894DEBF0FBECDBFCF91DF915F
:101EB0000895DF93CF9300D000D000D0CDB7DEB728
:101EC000FE013396809123018383809124018283D4
:101ED000809125018183809126018B838091280147
:101EE0008A8380912901898380913601882341F476
:101EF00081E08093310185E08093320184E280C0EB
:101F000080911D0190911E01A0911F01B0912001AF
:101F10000097A105B105B9F489819A81892B39F41B
:101F200010923101109232011092330109C081E008
:101F30008093310185E08093320184E28093330104
:101F4000109234014CC0F9E0B695A7959795879506
:101F5000FA95D1F74B815C816D817E819C018091E6
:101F600035010E94020182309105D9F1833091053B
:101F700009F43FC0892B09F046C029813A8140E02D
:101F800050E080911D0190911E01A0911F01B09120
:101F90002001E9E0B695A79597958795EA95D1F741
:101FA000281739074A075B0739F41092310110925C
:101FB00032011092330109C081E08093310185E044
:101FC0008093320184E280933301109234011092A5
:101FD0001D0110921E0110921F011092200181E03C
:101FE0001DC081E08093310182E0809332018AE359
:101FF00007C081E08093310186E08093320188E25E
:102000008093330108C081E08093310184E08093A4
:102010003201109233011092340180E026960FB6FF
:10202000F894DEBF0FBECDBFCF91DF9108950F931F
:102030001F93DF93CF9300D000D0CDB7DEB78E01D2
:102040000F5F1F4FB801809135010E941D01823042
:102050009105C9F183309105F1F1892B09F045C053
:10206000F80183818093F10082818093F100818166
:102070008093F10080818093F1001092F100109222
:10208000F10082E08093F1001092F1008091E8006D
:102090008F778093E80080911D0190911E01A0919F
:1020A0001F01B09120010897A109B10980931D017A
:1020B00090931E01A0931F01B09320011092310153
:1020C0001092320118C081E08093310182E0809348
:1020D00032018AE307C081E08093310186E080937A
:1020E000320188E28093330108C081E0809331019E
:1020F00084E080933201109233011092340181E028
:102100000F900F900F900F90CF91DF911F910F9133
:102110000895809135010E9427018230910551F088
:102120008330910579F0892BB9F410923101109226
:10213000320118C081E08093310182E08093320146
:102140008AE307C081E08093310186E08093320109
:1021500088E28093330108C081E08093310184E0FC
:1021600080933201109233011092340181E008957E
:10217000809121018A3221F45F9AD4DD5F9808951D
:10218000883221F45D9A95DE5D9808958A31C9F010
:102190008B3138F4833089F0823181F0882379F0F3
:1021A0001EC0853269F0863218F48E31C1F40BC03E
:1021B0008F3249F08A3599F410C0C6CB25CCA9CF0F
:1021C00036CF80E00BC01092310110923201109294
:1021D00033011092340181E0089581E092CC81E0D6
:1021E0008093310185E08093320180E28093330156
:1021F0001092340180E00895809137018F5F8093C1
:10220000370108951F9381E08093E90011E00AC02F
:102210001092E9008091E80083FF02C00E94A502AD
:102220001093E9008091EB0085FDF2CF82E080936E
:10223000E90012E00AC01092E9008091E80083FFF3
:1022400002C00E94A5021093E9008091EB0085FD79
:10225000F2CF81E08093E90004C08091EB0080FF21
:1022600038C08091E80085FFF8CF85E58093F100C4
:1022700093E59093F10082E48093F1009093F10054
:1022800080910D018093F10080910E018093F10007
:1022900080910F018093F100809110018093F100F3
:1022A00080911D018093F10080911E018093F100C7
:1022B00080911F018093F100809120018093F100B3
:1022C000809131018093F1008091E8008F778093B5
:1022D000E8001F91089582E08093E9002091F100C9
:1022E0008091F100833519F490E0253509F091E0F3
:1022F0008091F100823409F091E08091F100833403
:1023000011F49923A9F08091E8008B7F8093E80075
:102310008091E8008F778093E80091E09093E90046
:102320008091EB0080628093EB00909313010895FD
:102330008091F10080930D018091F10080930E0156
:102340008091F10080930F018091F1008093100142
:102350008091F10080931D018091F10080931E0116
:102360008091F10080931F018091F1008093200102
:102370008091F100882321F081E08093360102C032
:10238000109236018091F100809335018091110106
:10239000882321F40E94EA00809335018091F100A6
:1023A000E1E2F1E08091F100819381E0E133F8070F
:1023B000C9F78091E8008B7F8093E8008091E80066
:1023C0008F778093E80080913601813011F48093FB
:1023D000E900CEDE813089F08091EB00806280934D
:1023E000EB0080913601813011F0E2E001C0E1E0C4
:1023F000F0E0EE5EFE4F81E0808308958091190148
:10240000882349F082E08093E9008091E80082FF10
:1024100002C061DFF7CE08958AB1806F8AB9E2EE1B
:10242000F0E08081846080830C944206F894FFCFB2
:00000001FF
